{
  "contractName": "AuctionRepo",
  "abi": [
    {
      "inputs": [],
      "name": "_auctionIds",
      "outputs": [
        {
          "internalType": "uint256",
          "name": "",
          "type": "uint256"
        }
      ],
      "stateMutability": "view",
      "type": "function",
      "constant": true
    },
    {
      "inputs": [
        {
          "internalType": "uint256",
          "name": "",
          "type": "uint256"
        },
        {
          "internalType": "uint256",
          "name": "",
          "type": "uint256"
        }
      ],
      "name": "auctionBids",
      "outputs": [
        {
          "internalType": "uint256",
          "name": "highestBindingBid",
          "type": "uint256"
        },
        {
          "internalType": "address payable",
          "name": "highestBidder",
          "type": "address"
        },
        {
          "internalType": "uint256",
          "name": "amount",
          "type": "uint256"
        },
        {
          "internalType": "address",
          "name": "bidder",
          "type": "address"
        }
      ],
      "stateMutability": "view",
      "type": "function",
      "constant": true
    },
    {
      "inputs": [
        {
          "internalType": "address",
          "name": "",
          "type": "address"
        },
        {
          "internalType": "uint256",
          "name": "",
          "type": "uint256"
        }
      ],
      "name": "auctionOwner",
      "outputs": [
        {
          "internalType": "uint256",
          "name": "",
          "type": "uint256"
        }
      ],
      "stateMutability": "view",
      "type": "function",
      "constant": true
    },
    {
      "inputs": [
        {
          "internalType": "uint256",
          "name": "",
          "type": "uint256"
        }
      ],
      "name": "bid",
      "outputs": [
        {
          "internalType": "uint256",
          "name": "highestBindingBid",
          "type": "uint256"
        },
        {
          "internalType": "address payable",
          "name": "highestBidder",
          "type": "address"
        },
        {
          "internalType": "uint256",
          "name": "amount",
          "type": "uint256"
        },
        {
          "internalType": "address",
          "name": "bidder",
          "type": "address"
        }
      ],
      "stateMutability": "view",
      "type": "function",
      "constant": true
    },
    {
      "inputs": [],
      "name": "canceled",
      "outputs": [
        {
          "internalType": "bool",
          "name": "",
          "type": "bool"
        }
      ],
      "stateMutability": "view",
      "type": "function",
      "constant": true
    },
    {
      "inputs": [
        {
          "internalType": "uint256",
          "name": "",
          "type": "uint256"
        },
        {
          "internalType": "address",
          "name": "",
          "type": "address"
        }
      ],
      "name": "fundsByBidder",
      "outputs": [
        {
          "internalType": "uint256",
          "name": "",
          "type": "uint256"
        }
      ],
      "stateMutability": "view",
      "type": "function",
      "constant": true
    },
    {
      "inputs": [
        {
          "internalType": "uint256",
          "name": "_auctionId",
          "type": "uint256"
        }
      ],
      "name": "getBidsCount",
      "outputs": [
        {
          "internalType": "uint256",
          "name": "",
          "type": "uint256"
        }
      ],
      "stateMutability": "view",
      "type": "function",
      "constant": true
    },
    {
      "inputs": [
        {
          "internalType": "uint256",
          "name": "_auctionId",
          "type": "uint256"
        }
      ],
      "name": "getCurrentBid",
      "outputs": [
        {
          "internalType": "uint256",
          "name": "",
          "type": "uint256"
        },
        {
          "internalType": "address",
          "name": "",
          "type": "address"
        }
      ],
      "stateMutability": "view",
      "type": "function",
      "constant": true
    },
    {
      "inputs": [
        {
          "internalType": "uint256",
          "name": "id",
          "type": "uint256"
        }
      ],
      "name": "getAuctionById",
      "outputs": [
        {
          "internalType": "uint256",
          "name": "AuctionId",
          "type": "uint256"
        },
        {
          "internalType": "uint256",
          "name": "startPrice",
          "type": "uint256"
        },
        {
          "internalType": "uint256",
          "name": "tokenId",
          "type": "uint256"
        },
        {
          "internalType": "uint256",
          "name": "highestBindingBid",
          "type": "uint256"
        },
        {
          "internalType": "address",
          "name": "owner",
          "type": "address"
        },
        {
          "internalType": "bool",
          "name": "active",
          "type": "bool"
        },
        {
          "internalType": "bool",
          "name": "finalized",
          "type": "bool"
        },
        {
          "internalType": "uint256",
          "name": "bidIncrement",
          "type": "uint256"
        }
      ],
      "stateMutability": "view",
      "type": "function",
      "constant": true
    },
    {
      "inputs": [
        {
          "internalType": "address",
          "name": "_tokenRepositoryAddress",
          "type": "address"
        },
        {
          "internalType": "uint256",
          "name": "_tokenId",
          "type": "uint256"
        },
        {
          "internalType": "uint256",
          "name": "_startPrice",
          "type": "uint256"
        },
        {
          "internalType": "uint256",
          "name": "_blockDeadline",
          "type": "uint256"
        },
        {
          "internalType": "uint256",
          "name": "_bidIncrement",
          "type": "uint256"
        }
      ],
      "name": "createAuction",
      "outputs": [
        {
          "internalType": "bool",
          "name": "",
          "type": "bool"
        }
      ],
      "stateMutability": "nonpayable",
      "type": "function"
    },
    {
      "inputs": [
        {
          "internalType": "uint256",
          "name": "id",
          "type": "uint256"
        }
      ],
      "name": "cancelAuction",
      "outputs": [
        {
          "internalType": "bool",
          "name": "success",
          "type": "bool"
        }
      ],
      "stateMutability": "nonpayable",
      "type": "function"
    },
    {
      "inputs": [
        {
          "internalType": "uint256",
          "name": "id",
          "type": "uint256"
        }
      ],
      "name": "finalizeAuction",
      "outputs": [],
      "stateMutability": "nonpayable",
      "type": "function"
    },
    {
      "inputs": [
        {
          "internalType": "uint256",
          "name": "id",
          "type": "uint256"
        }
      ],
      "name": "placeBid",
      "outputs": [
        {
          "internalType": "bool",
          "name": "success",
          "type": "bool"
        }
      ],
      "stateMutability": "payable",
      "type": "function",
      "payable": true
    },
    {
      "inputs": [
        {
          "internalType": "uint256",
          "name": "id",
          "type": "uint256"
        }
      ],
      "name": "withdraw",
      "outputs": [
        {
          "internalType": "bool",
          "name": "success",
          "type": "bool"
        }
      ],
      "stateMutability": "payable",
      "type": "function",
      "payable": true
    }
  ],
  "bytecode": "0x60806040526000600660006101000a81548160ff0219169083151502179055506000600660016101000a81548160ff02191690831515021790555034801561004657600080fd5b50612141806100566000396000f3fe6080604052600436106100dd5760003560e01c80635f93de491161007f5780639979ef45116100595780639979ef451461055a578063c8756cda146105a0578063da4e364f1461060f578063e808386314610691576100dd565b80635f93de49146103b0578063961c9ae41461047657806396b5a75514610507576100dd565b80632e1a7d4d116100bb5780632e1a7d4d146102305780633f9942ff146102765780634008f9c0146102a5578063454a2ab3146102f4576100dd565b806303b77167146100e257806318111ada1461010d57806326fe3065146101c1575b600080fd5b3480156100ee57600080fd5b506100f76106cc565b6040518082815260200191505060405180910390f35b34801561011957600080fd5b506101466004803603602081101561013057600080fd5b81019080803590602001909291905050506106d2565b604051808981526020018881526020018781526020018681526020018573ffffffffffffffffffffffffffffffffffffffff1673ffffffffffffffffffffffffffffffffffffffff16815260200184151515158152602001831515151581526020018281526020019850505050505050505060405180910390f35b3480156101cd57600080fd5b5061021a600480360360408110156101e457600080fd5b8101908080359060200190929190803573ffffffffffffffffffffffffffffffffffffffff169060200190929190505050610958565b6040518082815260200191505060405180910390f35b61025c6004803603602081101561024657600080fd5b810190808035906020019092919050505061097d565b604051808215151515815260200191505060405180910390f35b34801561028257600080fd5b5061028b610be1565b604051808215151515815260200191505060405180910390f35b3480156102b157600080fd5b506102de600480360360208110156102c857600080fd5b8101908080359060200190929190505050610bf4565b6040518082815260200191505060405180910390f35b34801561030057600080fd5b5061032d6004803603602081101561031757600080fd5b8101908080359060200190929190505050610c14565b604051808581526020018473ffffffffffffffffffffffffffffffffffffffff1673ffffffffffffffffffffffffffffffffffffffff1681526020018381526020018273ffffffffffffffffffffffffffffffffffffffff1673ffffffffffffffffffffffffffffffffffffffff16815260200194505050505060405180910390f35b3480156103bc57600080fd5b506103f3600480360360408110156103d357600080fd5b810190808035906020019092919080359060200190929190505050610c84565b604051808581526020018473ffffffffffffffffffffffffffffffffffffffff1673ffffffffffffffffffffffffffffffffffffffff1681526020018381526020018273ffffffffffffffffffffffffffffffffffffffff1673ffffffffffffffffffffffffffffffffffffffff16815260200194505050505060405180910390f35b34801561048257600080fd5b506104ed600480360360a081101561049957600080fd5b81019080803573ffffffffffffffffffffffffffffffffffffffff16906020019092919080359060200190929190803590602001909291908035906020019092919080359060200190929190505050610d0e565b604051808215151515815260200191505060405180910390f35b34801561051357600080fd5b506105406004803603602081101561052a57600080fd5b8101908080359060200190929190505050611016565b604051808215151515815260200191505060405180910390f35b6105866004803603602081101561057057600080fd5b810190808035906020019092919050505061149f565b604051808215151515815260200191505060405180910390f35b3480156105ac57600080fd5b506105f9600480360360408110156105c357600080fd5b81019080803573ffffffffffffffffffffffffffffffffffffffff169060200190929190803590602001909291905050506119f3565b6040518082815260200191505060405180910390f35b34801561061b57600080fd5b506106486004803603602081101561063257600080fd5b8101908080359060200190929190505050611a21565b604051808381526020018273ffffffffffffffffffffffffffffffffffffffff1673ffffffffffffffffffffffffffffffffffffffff1681526020019250505060405180910390f35b34801561069d57600080fd5b506106ca600480360360208110156106b457600080fd5b8101908080359060200190929190505050611b58565b005b60055481565b6000806000806000806000806106e6612039565b6000808b8152602001908152602001600020604051806101200160405290816000820154815260200160018201548152602001600282015481526020016003820160009054906101000a900473ffffffffffffffffffffffffffffffffffffffff1673ffffffffffffffffffffffffffffffffffffffff1673ffffffffffffffffffffffffffffffffffffffff1681526020016004820160009054906101000a900473ffffffffffffffffffffffffffffffffffffffff1673ffffffffffffffffffffffffffffffffffffffff1673ffffffffffffffffffffffffffffffffffffffff1681526020016004820160149054906101000a900460ff161515151581526020016004820160159054906101000a900460ff161515151581526020016004820160169054906101000a900460ff1615151515815260200160058201548152505090506108336120b7565b600160008c8152602001908152602001600020604051806080016040529081600082015481526020016001820160009054906101000a900473ffffffffffffffffffffffffffffffffffffffff1673ffffffffffffffffffffffffffffffffffffffff1673ffffffffffffffffffffffffffffffffffffffff168152602001600282015481526020016003820160009054906101000a900473ffffffffffffffffffffffffffffffffffffffff1673ffffffffffffffffffffffffffffffffffffffff1673ffffffffffffffffffffffffffffffffffffffff168152505090508a82602001518360400151836000015185608001518660a001518760c00151886101000151839350995099509950995099509950995099505050919395975091939597565b6004602052816000526040600020602052806000526040600020600091509150505481565b600060011515600660029054906101000a900460ff1615151461099f57600080fd5b60011515600660009054906101000a900460ff161515146109bf57600080fd5b60008060006001600086815260200190815260200160002090508060010160009054906101000a900473ffffffffffffffffffffffffffffffffffffffff1673ffffffffffffffffffffffffffffffffffffffff163373ffffffffffffffffffffffffffffffffffffffff161415610ad4578060010160009054906101000a900473ffffffffffffffffffffffffffffffffffffffff1692506004600086815260200190815260200160002060008260010160009054906101000a900473ffffffffffffffffffffffffffffffffffffffff1673ffffffffffffffffffffffffffffffffffffffff1673ffffffffffffffffffffffffffffffffffffffff168152602001908152602001600020549150610b2b565b3392506004600086815260200190815260200160002060008473ffffffffffffffffffffffffffffffffffffffff1673ffffffffffffffffffffffffffffffffffffffff1681526020019081526020016000205491505b6000821415610b3957600080fd5b816004600087815260200190815260200160002060008573ffffffffffffffffffffffffffffffffffffffff1673ffffffffffffffffffffffffffffffffffffffff168152602001908152602001600020600082825403925050819055503373ffffffffffffffffffffffffffffffffffffffff166108fc839081150290604051600060405180830381858888f19350505050610bd557600080fd5b60019350505050919050565b600660029054906101000a900460ff1681565b600060026000838152602001908152602001600020805490509050919050565b60016020528060005260406000206000915090508060000154908060010160009054906101000a900473ffffffffffffffffffffffffffffffffffffffff16908060020154908060030160009054906101000a900473ffffffffffffffffffffffffffffffffffffffff16905084565b60026020528160005260406000208181548110610c9d57fe5b9060005260206000209060040201600091509150508060000154908060010160009054906101000a900473ffffffffffffffffffffffffffffffffffffffff16908060020154908060030160009054906101000a900473ffffffffffffffffffffffffffffffffffffffff16905084565b6000858560008273ffffffffffffffffffffffffffffffffffffffff16636352211e836040518263ffffffff1660e01b81526004018082815260200191505060206040518083038186803b158015610d6557600080fd5b505afa158015610d79573d6000803e3d6000fd5b505050506040513d6020811015610d8f57600080fd5b810190808051906020019092919050505090503073ffffffffffffffffffffffffffffffffffffffff168173ffffffffffffffffffffffffffffffffffffffff1614610dda57600080fd5b6000871015610e51576040517f08c379a000000000000000000000000000000000000000000000000000000000815260040180806020018281038252601b8152602001807f50726963652063616e6e6f74206265206c656464207468616e2030000000000081525060200191505060405180910390fd5b6005600081548092919060010191905055506040518061012001604052808781526020018881526020018981526020018a73ffffffffffffffffffffffffffffffffffffffff1681526020013373ffffffffffffffffffffffffffffffffffffffff16815260200160011515815260200160001515815260200160011515815260200186815250600080600554815260200190815260200160002060008201518160000155602082015181600101556040820151816002015560608201518160030160006101000a81548173ffffffffffffffffffffffffffffffffffffffff021916908373ffffffffffffffffffffffffffffffffffffffff16021790555060808201518160040160006101000a81548173ffffffffffffffffffffffffffffffffffffffff021916908373ffffffffffffffffffffffffffffffffffffffff16021790555060a08201518160040160146101000a81548160ff02191690831515021790555060c08201518160040160156101000a81548160ff02191690831515021790555060e08201518160040160166101000a81548160ff02191690831515021790555061010082015181600501559050506001935050505095945050505050565b6000813373ffffffffffffffffffffffffffffffffffffffff1660008083815260200190815260200160002060040160009054906101000a900473ffffffffffffffffffffffffffffffffffffffff1673ffffffffffffffffffffffffffffffffffffffff161461108657600080fd5b6001600660026101000a81548160ff0219169083151502179055506110a9612039565b600080858152602001908152602001600020604051806101200160405290816000820154815260200160018201548152602001600282015481526020016003820160009054906101000a900473ffffffffffffffffffffffffffffffffffffffff1673ffffffffffffffffffffffffffffffffffffffff1673ffffffffffffffffffffffffffffffffffffffff1681526020016004820160009054906101000a900473ffffffffffffffffffffffffffffffffffffffff1673ffffffffffffffffffffffffffffffffffffffff1673ffffffffffffffffffffffffffffffffffffffff1681526020016004820160149054906101000a900460ff161515151581526020016004820160159054906101000a900460ff161515151581526020016004820160169054906101000a900460ff1615151515815260200160058201548152505090506111f66120b7565b60016000868152602001908152602001600020604051806080016040529081600082015481526020016001820160009054906101000a900473ffffffffffffffffffffffffffffffffffffffff1673ffffffffffffffffffffffffffffffffffffffff1673ffffffffffffffffffffffffffffffffffffffff168152602001600282015481526020016003820160009054906101000a900473ffffffffffffffffffffffffffffffffffffffff1673ffffffffffffffffffffffffffffffffffffffff1673ffffffffffffffffffffffffffffffffffffffff168152505090506000600260008781526020019081526020016000208054905090506000811115611446576113026120b7565b60026000888152602001908152602001600020600183038154811061132357fe5b9060005260206000209060040201604051806080016040529081600082015481526020016001820160009054906101000a900473ffffffffffffffffffffffffffffffffffffffff1673ffffffffffffffffffffffffffffffffffffffff1673ffffffffffffffffffffffffffffffffffffffff168152602001600282015481526020016003820160009054906101000a900473ffffffffffffffffffffffffffffffffffffffff1673ffffffffffffffffffffffffffffffffffffffff1673ffffffffffffffffffffffffffffffffffffffff16815250509050806020015173ffffffffffffffffffffffffffffffffffffffff166108fc82604001519081150290604051600060405180830381858888f1935050505061144457600080fd5b505b61145e30846080015185606001518660400151611eb4565b1561149257600080600088815260200190815260200160002060040160146101000a81548160ff0219169083151502179055505b6001945050505050919050565b6000803414156114ae57600080fd5b60006001600084815260200190815260200160002090506001600660006101000a81548160ff0219169083151502179055506114e8612039565b600080858152602001908152602001600020604051806101200160405290816000820154815260200160018201548152602001600282015481526020016003820160009054906101000a900473ffffffffffffffffffffffffffffffffffffffff1673ffffffffffffffffffffffffffffffffffffffff1673ffffffffffffffffffffffffffffffffffffffff1681526020016004820160009054906101000a900473ffffffffffffffffffffffffffffffffffffffff1673ffffffffffffffffffffffffffffffffffffffff1673ffffffffffffffffffffffffffffffffffffffff1681526020016004820160149054906101000a900460ff161515151581526020016004820160159054906101000a900460ff161515151581526020016004820160169054906101000a900460ff1615151515815260200160058201548152505090506000346004600087815260200190815260200160002060003373ffffffffffffffffffffffffffffffffffffffff1673ffffffffffffffffffffffffffffffffffffffff1681526020019081526020016000205401905061168c6120b7565b33816060019073ffffffffffffffffffffffffffffffffffffffff16908173ffffffffffffffffffffffffffffffffffffffff168152505034816040018181525050600260008781526020019081526020016000208190806001815401808255809150506001900390600052602060002090600402016000909190919091506000820151816000015560208201518160010160006101000a81548173ffffffffffffffffffffffffffffffffffffffff021916908373ffffffffffffffffffffffffffffffffffffffff1602179055506040820151816002015560608201518160030160006101000a81548173ffffffffffffffffffffffffffffffffffffffff021916908373ffffffffffffffffffffffffffffffffffffffff1602179055505050836000015482116117bf57600080fd5b60006004600088815260200190815260200160002060008660010160009054906101000a900473ffffffffffffffffffffffffffffffffffffffff1673ffffffffffffffffffffffffffffffffffffffff1673ffffffffffffffffffffffffffffffffffffffff168152602001908152602001600020549050826004600089815260200190815260200160002060003373ffffffffffffffffffffffffffffffffffffffff1673ffffffffffffffffffffffffffffffffffffffff168152602001908152602001600020819055508083116118c75780846101000151840111156118b1578085600001819055506118c2565b836101000151830185600001819055505b6119e5565b8460010160009054906101000a900473ffffffffffffffffffffffffffffffffffffffff1673ffffffffffffffffffffffffffffffffffffffff163373ffffffffffffffffffffffffffffffffffffffff16146119e157338560010160006101000a81548173ffffffffffffffffffffffffffffffffffffffff021916908373ffffffffffffffffffffffffffffffffffffffff16021790555080846101000151840111156119cf5760001515600660019054906101000a900460ff161515141561199a578085600001819055506119ca565b83610100015184602001510185600001819055506001600660016101000a81548160ff0219169083151502179055505b6119e0565b836101000151830185600001819055505b5b8290505b600195505050505050919050565b60036020528160005260406000208181548110611a0c57fe5b90600052602060002001600091509150505481565b600080600060026000858152602001908152602001600020805490509050611a476120b7565b600260008681526020019081526020016000208281548110611a6557fe5b9060005260206000209060040201604051806080016040529081600082015481526020016001820160009054906101000a900473ffffffffffffffffffffffffffffffffffffffff1673ffffffffffffffffffffffffffffffffffffffff1673ffffffffffffffffffffffffffffffffffffffff168152602001600282015481526020016003820160009054906101000a900473ffffffffffffffffffffffffffffffffffffffff1673ffffffffffffffffffffffffffffffffffffffff1673ffffffffffffffffffffffffffffffffffffffff1681525050905080604001518160200151809050935093505050915091565b611b60612039565b600080838152602001908152602001600020604051806101200160405290816000820154815260200160018201548152602001600282015481526020016003820160009054906101000a900473ffffffffffffffffffffffffffffffffffffffff1673ffffffffffffffffffffffffffffffffffffffff1673ffffffffffffffffffffffffffffffffffffffff1681526020016004820160009054906101000a900473ffffffffffffffffffffffffffffffffffffffff1673ffffffffffffffffffffffffffffffffffffffff1673ffffffffffffffffffffffffffffffffffffffff1681526020016004820160149054906101000a900460ff161515151581526020016004820160159054906101000a900460ff161515151581526020016004820160169054906101000a900460ff1615151515815260200160058201548152505090506000600260008481526020019081526020016000208054905090508160000151421015611cd157600080fd5b6000811415611ce957611ce383611016565b50611eaf565b611cf16120b7565b600260008581526020019081526020016000206001830381548110611d1257fe5b9060005260206000209060040201604051806080016040529081600082015481526020016001820160009054906101000a900473ffffffffffffffffffffffffffffffffffffffff1673ffffffffffffffffffffffffffffffffffffffff1673ffffffffffffffffffffffffffffffffffffffff168152602001600282015481526020016003820160009054906101000a900473ffffffffffffffffffffffffffffffffffffffff1673ffffffffffffffffffffffffffffffffffffffff1673ffffffffffffffffffffffffffffffffffffffff16815250509050826080015173ffffffffffffffffffffffffffffffffffffffff166108fc82604001519081150290604051600060405180830381858888f19350505050611e3357600080fd5b611e4b30826020015185606001518660400151611eb4565b15611ead57600080600086815260200190815260200160002060040160146101000a81548160ff021916908315150217905550600160008086815260200190815260200160002060040160156101000a81548160ff0219169083151502179055505b505b505050565b6000808390508073ffffffffffffffffffffffffffffffffffffffff1663095ea7b386856040518363ffffffff1660e01b8152600401808373ffffffffffffffffffffffffffffffffffffffff1673ffffffffffffffffffffffffffffffffffffffff16815260200182815260200192505050600060405180830381600087803b158015611f4157600080fd5b505af1158015611f55573d6000803e3d6000fd5b505050508073ffffffffffffffffffffffffffffffffffffffff166323b872dd8787866040518463ffffffff1660e01b8152600401808473ffffffffffffffffffffffffffffffffffffffff1673ffffffffffffffffffffffffffffffffffffffff1681526020018373ffffffffffffffffffffffffffffffffffffffff1673ffffffffffffffffffffffffffffffffffffffff1681526020018281526020019350505050600060405180830381600087803b15801561201457600080fd5b505af1158015612028573d6000803e3d6000fd5b505050506001915050949350505050565b604051806101200160405280600081526020016000815260200160008152602001600073ffffffffffffffffffffffffffffffffffffffff168152602001600073ffffffffffffffffffffffffffffffffffffffff168152602001600015158152602001600015158152602001600015158152602001600081525090565b604051806080016040528060008152602001600073ffffffffffffffffffffffffffffffffffffffff16815260200160008152602001600073ffffffffffffffffffffffffffffffffffffffff168152509056fea2646970667358221220ae1fe2c6791ecb91fff0912de3406699e6414bec8b4d7067ff24106d919dd31664736f6c63430006030033",
  "source": "pragma solidity ^0.6.3;\n\nimport \"./TokenRepo.sol\";\n\ncontract AuctionRepo {\n    \n    //Auction[] public auctions;\n    mapping(uint256 => Auction) private _auctions;\n    \n    mapping(uint256=>bidding) public bid;\n    \n    mapping(uint256 => bidding[]) public auctionBids;\n    \n    mapping(address => uint[]) public auctionOwner;\n    \n    mapping(uint256=>mapping(address => uint256)) public fundsByBidder;\n    \n    uint256 public _auctionIds;\n    bool auctionstarted = false;\n    bool firsttime = false;\n    bool public canceled;\n    \n    struct Auction {\n        uint256 blockDeadline;\n        uint256 startPrice;\n        uint256 tokenId;\n        address tokenRepositoryAddress;\n        address payable owner;\n        bool active;\n        bool finalized;\n        bool exists;\n        uint256 bidIncrement;\n    }\n    \n    struct bidding {\n        uint256 highestBindingBid; \n        address payable highestBidder;\n        uint256 amount;\n        address bidder;\n    }\n    \n    \n    \n    \n    \n    \n    modifier isOwner(uint _auctionId) {\n        require(_auctions[_auctionId].owner == msg.sender);\n        _;\n    }\n    \n    modifier contractIsTokenOwner(address _tokenRepositoryAddress, uint256 _tokenId) {\n        address tokenOwner = TokenRepo(_tokenRepositoryAddress).ownerOf(_tokenId);\n        require(tokenOwner == address(this));\n        _;\n    }\n    \n    modifier minbid(uint256 id)\n    {\n        Auction memory auction = _auctions[id];\n        if(msg.value<auction.startPrice) revert();\n        _;\n    }\n    \n    \n    \n    function getBidsCount(uint _auctionId) public view returns(uint) {\n        return auctionBids[_auctionId].length;\n    }\n    \n    function getCurrentBid(uint _auctionId) public view returns(uint256, address) {\n        uint bidsLength = auctionBids[_auctionId].length;\n        bidding memory lastBid = auctionBids[_auctionId][bidsLength];\n           \n        return (lastBid.amount, lastBid.highestBidder);\n    }\n    \n    \n    function getAuctionById(uint256 id) public view returns(\n        uint256 AuctionId,\n        uint256 startPrice,\n        uint256 tokenId,\n        uint256 highestBindingBid,\n        address owner,\n        bool active,\n        bool finalized,\n        uint256 bidIncrement) {\n\n        Auction memory auction = _auctions[id];\n        bidding memory bid = bid[id];\n        return (\n            id,\n            auction.startPrice,\n            auction.tokenId,\n            bid.highestBindingBid,\n            auction.owner, \n            auction.active, \n            auction.finalized,\n            auction.bidIncrement);\n    }\n    \n    function createAuction(address _tokenRepositoryAddress, uint256 _tokenId, uint256 _startPrice, uint256 _blockDeadline, uint256 _bidIncrement) public contractIsTokenOwner(_tokenRepositoryAddress, _tokenId) returns(bool) {\n        require(_startPrice >=0, \"Price cannot be ledd than 0\");\n        \n        _auctionIds++;\n        _auctions[_auctionIds] = Auction( _blockDeadline, _startPrice, _tokenId, _tokenRepositoryAddress,msg.sender, true , false, true, _bidIncrement);\n        \n        //emit AuctionCreated(msg.sender, _auctionIds);\n        return true;\n    }\n\n    function cancelAuction(uint256 id) public isOwner(id) returns (bool success) {\n        \n        canceled = true;\n        Auction memory auction = _auctions[id];\n        bidding memory bid = bid[id];\n        \n        uint bidLength = auctionBids[id].length;\n        \n        if(bidLength > 0) {\n             bidding memory lastBid = auctionBids[id][bidLength -1];\n             \n             if(!lastBid.highestBidder.send(lastBid.amount)){\n                 revert();\n             }\n        }\n        \n         if(approveAndTransfer(address(this), auction.owner, auction.tokenRepositoryAddress, auction.tokenId)){\n            _auctions[id].active = false;\n            //emit AuctionCanceled(msg.sender, id);\n        }\n        \n        //LogCanceled();\n        return true;\n   }\n   \n    function approveAndTransfer(address _from, address _to, address _tokenRepositoryAddress, uint256 _tokenId) internal returns(bool) {\n        TokenRepo remoteContract = TokenRepo(_tokenRepositoryAddress);\n        remoteContract.approve(_to, _tokenId);\n        remoteContract.transferFrom(_from, _to, _tokenId);\n        return true;\n    }     \n    \n    \n    function finalizeAuction(uint id) public {\n        Auction memory auction = _auctions[id];\n        uint bidsLength = auctionBids[id].length;\n\n        // 1. if auction not ended just revert\n        if( block.timestamp < auction.blockDeadline ) revert();\n        \n        // if there are no bids cancel\n        if(bidsLength == 0) {\n            cancelAuction(id);\n        }else{\n\n            // 2. the money goes to the auction owner\n            bidding memory lastBid = auctionBids[id][bidsLength - 1];\n            if(!auction.owner.send(lastBid.amount)) {\n                revert();\n            }\n\n            // approve and transfer from this contract to the bid winner \n            if(approveAndTransfer(address(this), lastBid.highestBidder, auction.tokenRepositoryAddress, auction.tokenId)){\n                _auctions[id].active = false;\n                _auctions[id].finalized = true;\n                //emit AuctionFinalized(msg.sender, _auctionId);\n            }\n        }\n    }\n\n    function placeBid(uint256 id) public payable returns (bool success) {\n    // reject payments of 0 ETH\n    if (msg.value == 0) revert();\n    \n    bidding storage bid = bid[id]; \n    auctionstarted = true;\n    Auction memory auction = _auctions[id];  \n\n    uint newBid = fundsByBidder[id][msg.sender] + msg.value;\n    bidding memory newB;\n    newB.bidder = msg.sender;\n    newB.amount = msg.value;\n    \n    auctionBids[id].push(newB);\n\n\n    if (newBid <= bid.highestBindingBid) revert();\n\n    // grab the previous highest bid (before updating fundsByBidder, in case msg.sender is the\n    // highestBidder and is just increasing their maximum bid).\n    uint highestBid = fundsByBidder[id][bid.highestBidder];\n\n    fundsByBidder[id][msg.sender] = newBid;\n\n    if (newBid <= highestBid) {\n      \n        if(newBid+auction.bidIncrement> highestBid)\n        {\n            bid.highestBindingBid = highestBid;\n        }\n        else\n        {\n            bid.highestBindingBid = newBid+auction.bidIncrement;\n        }\n    } else {\n        \n        if (msg.sender != bid.highestBidder) {\n            bid.highestBidder = msg.sender;\n        if(newBid+auction.bidIncrement> highestBid)\n        {   if(firsttime==false)\n            bid.highestBindingBid = highestBid;\n            else\n            {bid.highestBindingBid = auction.startPrice + auction.bidIncrement;\n            firsttime=true;\n            }\n        }\n        else\n        {\n            bid.highestBindingBid = newBid+auction.bidIncrement;\n        }\n        }\n        highestBid = newBid;\n    }\n\n    //LogBid(msg.sender, newBid, bid.highestBidder, highestBid, bid.highestBindingBid);\n    return true;\n    }\n    \n    function withdraw(uint256 id) public payable returns (bool success) {   \n    require(canceled==true);\n    require(auctionstarted==true);\n    address payable withdrawalAccount;\n    uint withdrawalAmount;\n    bidding storage bid = bid[id]; \n    \n        if (msg.sender == bid.highestBidder) {\n            withdrawalAccount = bid.highestBidder;\n            withdrawalAmount = fundsByBidder[id][bid.highestBidder];\n        }\n        else {\n            withdrawalAccount = msg.sender;\n            withdrawalAmount = fundsByBidder[id][withdrawalAccount];\n        }\n\n    if (withdrawalAmount == 0) revert();\n\n    fundsByBidder[id][withdrawalAccount] -= withdrawalAmount;\n\n    // send the funds\n    if (!msg.sender.send(withdrawalAmount)) revert();\n\n    //LogWithdrawal(msg.sender, withdrawalAccount, withdrawalAmount);\n\n    return true;\n}\n    \n}",
  "sourcePath": "/home/neosoft/ethereum/auctionSmartContract/contracts/AuctionRepo.sol",
  "compiler": {
    "name": "solc",
    "version": "0.6.3+commit.8dda9521.Emscripten.clang"
  },
  "schemaVersion": "3.4.1",
  "updatedAt": "2021-07-19T05:42:57.681Z",
  "networkType": "ethereum",
  "devdoc": {
    "methods": {}
  },
  "userdoc": {
    "methods": {}
  }
}